:020000040000FA
:107D000003D082BE7EEF3EF020EE00F0700ED31264
:107D100082AEFED7900EAB6E260EAC6EA786020E1C
:107D2000D56E670EAF6EAB882BD90F0AFDE10F0E33
:107D300022D900EE04F024D90F0AF9E00250040A17
:107D400007E00250050A01E11BD902C0ECFFF3D79E
:107D500010EE05F0006A016AEDCFF4FFE65030D86E
:107D6000E250EA62FBD7E150E962F8D70150F462D1
:107D7000DBD70050EF62D8D7006A016A0650F66E72
:107D8000746E0750F76E756E08C0F8FF00EE0BF0CA
:107D90000A0E0560C9D7F9500544F92627D02FD01F
:107DA00039D04FD07CD0A8D0B5D0C4D0ABD7FF004D
:107DB0000400F2B4120082BEFCD782AEFED71200DD
:107DC000011800C001F0006EE83A0F0B001A0038ED
:107DD000F00B011A0038E844011AE00B011A001AEE
:107DE000120000030105FF84007D0000E20EF66E24
:107DF0007D0EF76E000EF86E0A0E0A6E0B6A090011
:107E0000F550ADD8DDDF0A06000E0B5A0A500B10F4
:107E1000F6E19ED00900F550D3DFF6503F0BFAE1B2
:107E20000050AFEC3FF00150AFEC3FF00A06000EFF
:107E30000B5A0A500B10EEE18FD0FF00FF00FF003D
:107E4000FF00C00EF616000EF65C800EF758000E0E
:107E5000F85802E67F6A17D0000EF65C7D0EF758E0
:107E6000000EF8580DE6000EF65C800EF758000E76
:107E7000F85806E77F6A07D0FF00FF00FF00FF0009
:107E8000940E7F6E8BD8400EF65EE86AF75AF85A69
:107E90000A2ED7D759D0FF00FF00FF00FF00C00E09
:107EA000F616000EF65C800EF758000EF85802E643
:107EB0007F6A16D0000EF65C7D0EF758000EF8585B
:107EC0000DE6000EF65C800EF758000EF85806E737
:107ED0007F6A06D0FF00FF00FF00FF00840E7F6E68
:107EE000EECFF5FF0D00F6503F0BFAE10A0056D831
:107EF00009000A2ED4D728D07F6A7F807350744A35
:107F0000752A2DD85DDF0A06000E0B5A0A500B1099
:107F1000F4E11ED0040E7F6EECCF73FF3FD87FB22A
:107F2000FED7744A752A0A06000E0B5A0A500B1027
:107F3000F3E10AD0C40E7F6E0800EE50F5622CD833
:107F40000B000A2EFAD700D07F6A055008D838DF18
:107F5000005005D8015003D8040E0DD8E5D6036EA5
:107F60000F0A06E00350040A03E00350050A02E189
:107F7000050E01D8035004009EA8FED7AD6E120076
:107F8000ABB2FF0004009EAAFDD7AE50026E1200F5
:107F9000FF00FF00FF007F6AF56E0C000400550E25
:0C7FA0007E6EAA0E7E6E7F820000120032
:020000040020DA
:080000000B04050D02060E09B8
:020000040030CA
:040000001D13797CD7
:020005008991DF
:060008000FC00FE00F40E5
:00000001FF
